:1000000012C02CC02BC02AC02AC028C027C026C0BE
:1000100025C024C023C022C021C020C01FC01EC0D4
:100020001DC01CC01BC011241FBECFE5D4E0DEBF25
:10003000CDBF10E0A0E6B0E0EAE7F5E002C0059031
:100040000D92AA36B107D9F720E0AAE6B0E001C0C8
:100050001D92AE3AB207E1F71DD28DC2D1CF1F92E9
:100060000F920FB60F9211242F935F936F937F938C
:100070008F939F93AF93BF93EF93FF9312BA209107
:100080006C0081E090E0022E01C0880F0A94EAF72C
:1000900087BB80916C00813091F018F0823059F567
:1000A0001EC080916A0090916B0068EE73E03CD2B4
:1000B00064E670E039D2605A7F4FFB011AC080912C
:1000C0006A0090916B0064E670E02ED26AE070E006
:1000D0002BD2605A7F4FFB01808180680BC08091DA
:1000E0006A0090916B006AE070E01ED2805A9F4FC8
:1000F000FC01808182BB80916C00982F9F5F909360
:100100006C00823010F010926C00FF91EF91BF9163
:10011000AF919F918F917F916F915F912F910F90F0
:100120000FBE0F901F901895FF920F931F93CF93C0
:10013000DF93CDB7DEB729970FB6F894DEBF0FBEB9
:10014000CDBF8FEF89870EE610E0F12C1CC0BE01F9
:100150006F5F7F4FCE01099651D189858F3FC9F0DE
:100160008E3FB9F0FE01319620E030E08191D80158
:10017000A20FB31F8C932F5F3F4F28303105B1F78B
:10018000F394085F1F4F8985882319F088E0F812DF
:10019000DECF8F2D29960FB6F894DEBF0FBECDBFF0
:1001A000DF91CF911F910F91FF90089568D0882320
:1001B00031F08CECA3D084E4A1D081E0089580E0FC
:1001C0000895CF93DF93EC015AD0882331F0CE010C
:1001D00038D184E493D081E001C080E0DF91CF91F9
:1001E00008950F931F93CF93DF938C01EB0147D0BA
:1001F000882389F0F8018081811103C08CEC7ED0C6
:1002000002C0C8011ED18EEB79D094D0888392D0E1
:10021000898381E001C080E0DF91CF911F910F9130
:100220000895FB01DC014C91418311963C9120E043
:10023000C901840F911D97FF03C091958195910984
:1002400046E0489F9001499F300D112497FD039689
:100250009595879595958795820F931F108264E6F3
:1002600070E062D1618382830895A998089508950A
:100270008111FBCFA99A089583B381700895F5DFAA
:100280008FEB93E00197F1F700C0000080E0F0DF12
:1002900090EA9A95F1F783B3E7E4F3E03197F1F749
:1002A00000C00000809581700895CF93DF931F9266
:1002B000CDB7DEB78983D9DF92E09A95F1F700C018
:1002C0008981882311F080E0D3DFE0EAEA95F1F735
:1002D00080E00F90DF91CF91CBCFC7DF82E08A958E
:1002E000F1F700C080E0C4DF95E29A95F1F70000D5
:1002F00083B398E79A95F1F781700895FF920F9371
:100300001F93CF93DF93F82EC0E0D0E001E010E020
:10031000C8010C2E01C0880F0A94EAF78F21C5DFAF
:100320002196C830D105A1F7DF91CF911F910F9190
:10033000FF900895FF920F931F93CF93DF93C0E038
:10034000D0E0F12C01E010E0C8DF882339F09801FB
:100350000C2E01C0220F0A94EAF7F22A2196C83027
:10036000D10591F78F2DDF91CF911F910F91FF90C4
:100370000895DF92EF92FF920F931F93CF93DF9335
:10038000E82EEB017CDF882359F180EFB7DFF12CF9
:1003900010E498EFD92ED10EA0DF082F9EDF88231E
:1003A00019F0002369F01FC001110AC01E1530F0BA
:1003B000888180FF05C0E11201C002C0F12E01E07A
:1003C000802F73DF98819695011101C001C090685C
:1003D000988311501D11E0CF21961111DACF05C07D
:1003E000FF24FA9402C08EEFF82E8F2DDF91CF916B
:1003F0001F910F91FF90EF90DF900895CF93DF93BF
:10040000EC018881B6DF8883DF91CF9108950F9347
:100410001F93CF93DF93182F092F31DF882359F0D3
:1004200083E36CDFC12FD02F18E084DF8993115054
:10043000E1F781E001C080E0DF91CF911F910F9142
:1004400008950F931F93CF93DF93182F092F17DF72
:10045000882361F085E552DFC12FD02F10E089910C
:100460004DDF1F5F1830D9F781E001C080E0DF91D8
:10047000CF911F910F91089583E083BF089504C029
:1004800012BE22B72D37E8F3615071098109910935
:10049000B8F70895CF93DF9300D000D01F92CDB767
:1004A000DEB781B38F6781BB87B3876087BB12BA22
:1004B00018BA82E084BB15BA89B7806489BF85B554
:1004C000826085BD7894D8DF2FDE80936D00F12C9B
:1004D00025C088E0F89E8001112402591F4FF801C1
:1004E00080818832D1F4C8016CDE60E273E080E084
:1004F00090E0C5DFBE016C5F7F4FC80172DE8130C6
:1005000061F4BE016F5F7F4FCE0104968ADE8A815F
:1005100090E090936B0080936A00F39480916D005B
:10052000F816B8F2F12CFCCF97FB072E16F40094C6
:1005300006D077FD08D00BD007FC05D03EF490958F
:1005400081959F4F0895709561957F4F0895AA1BDF
:10055000BB1B51E107C0AA1FBB1FA617B70710F0AE
:10056000A61BB70B881F991F5A95A9F780959095E0
:0A057000BC01CD010895F894FFCFFF
:0A057A003F065B4F666D7D077F6F43
:00000001FF
