:1000000012C02CC02BC02AC02AC028C027C026C0BE
:1000100025C024C023C022C021C020C01FC01EC0D4
:100020001DC01CC01BC011241FBECFE5D4E0DEBF25
:10003000CDBF10E0A0E6B0E0ECE0F6E002C0059035
:100040000D92A437B107D9F720E0A4E7B0E001C0D2
:100050001D92A83BB207E1F74FD2D6C2D1CF1F9273
:100060000F920FB60F9211242F935F936F937F938C
:100070008F939F93AF93BF93EF93FF9318BA209101
:10008000760081E090E0022E01C0880F0A94EAF722
:1000900084BB80917600813091F018F0823059F560
:1000A0001EC0809174009091750068EE73E085D257
:1000B00064E670E082D2605A7F4FFB011AC08091E3
:1000C00074009091750064E670E077D26AE070E0A9
:1000D00074D2605A7F4FFB01808180680BC0809191
:1000E0007400909175006AE070E067D2805A9F4F6B
:1000F000FC01808188BB80917600982F9F5F909350
:100100007600823010F010927600FF91EF91BF914F
:10011000AF919F918F917F916F915F912F910F90F0
:100120000FBE0F901F901895FF920F931F93CF93C0
:10013000DF93CDB7DEB729970FB6F894DEBF0FBEB9
:10014000CDBF8FEF898708E710E0F12C1CC0BE01FE
:100150006F5F7F4FCE01099682D189858F3FC9F0AD
:100160008E3FB9F0FE01319620E030E08191D80158
:10017000A20FB31F8C932F5F3F4F28303105B1F78B
:10018000F394085F1F4F8985882319F088E0F812DF
:10019000DECF8F2D29960FB6F894DEBF0FBECDBFF0
:1001A000DF91CF911F910F91FF900895B4D08823D4
:1001B00031F08CECF6D084E4F4D081E0089580E056
:1001C0000895CF93DF93EC01A6D0882331F0CE01C0
:1001D0006AD184E4E6D081E001C080E0DF91CF9174
:1001E0000895FC01680F791F80E048E10FC021915C
:1001F00098E0322F3827532F517030FD8427869591
:10020000513009F480682695915099F7E617F70761
:1002100071F70895CF92DF92EF92FF920F931F93A1
:10022000CF93DF93CDB7DEB729970FB6F894DEBF33
:100230000FBECDBF8C017B016ED0882379F1F80110
:100240008081811103C08CECACD002C0C8012BD1DD
:100250008EEBA7D089E0EAE6F0E0DE01119601908E
:100260000D928A95E1F78E010F5F1F4F6E01FAE044
:10027000CF0ED11C8FEF95D0F80181938F01EC1533
:10028000FD05C1F78981F70180838A81818369E057
:1002900070E0CE010196A5DF91E0811190E0892FF9
:1002A00029960FB6F894DEBF0FBECDBFDF91CF9178
:1002B0001F910F91FF90EF90DF90CF900895DC0198
:1002C000FB012C9122952F70218311968C9111970F
:1002D000877030E1839FC0011124822B81839C9120
:1002E0009F70392F330F330F390F328311969C9142
:1002F00011979C3F28F09FE7981B91838DE208C0DF
:100300008C91811104C0911102C080E201C08BE286
:1003100080830895089588E18AB983E389B910BC80
:10032000599801C08CB15F99FDCFF89480EF8CB9DA
:1003300080E48BB978945F9BFECF9CB181E0903FC5
:1003400009F480E0089593E099B910BC599A01C06E
:100350009CB15F99FDCF81118FEFF8948CB980E447
:100360008BB978945E9BFECF01C08CB15F99FDCFB5
:10037000089583E089B910BC599A01C08CB15F9986
:10038000FDCFF8948FEF8CB980E48BB978945E9BA5
:10039000FECF5F9BFECF9CB181E09F3F09F080E0E4
:1003A000089593E099B910BC599A98E030E480FF21
:1003B00002C02FEF01C020E0F8942CB93BB978942B
:1003C0005F9BFECF86952CB12F3F09F4806891503A
:1003D00071F70895DF92EF92FF920F931F93CF93DF
:1003E000DF93E82EEB0197DF882359F180EFD9DF07
:1003F000F12C10E498EFD92ED10EBBDF082FB9DF16
:10040000882319F0002369F01FC001110AC01E15CE
:1004100030F0888180FF05C0E11201C002C0F12EDA
:1004200001E0802F90DF98819695011101C001C0F5
:100430009068988311501D11E0CF21961111DACFE9
:1004400005C0FF24FA9402C08EEFF82E8F2DDF91A5
:10045000CF911F910F91FF90EF90DF900895CF9370
:10046000DF93EC018881B6DF8883DF91CF91089517
:100470000F931F93CF93DF93182F092F4CDF8823FF
:1004800061F083E38EDFC12FD02F18E08FEF89DF7B
:1004900089931150D9F781E001C080E0DF91CF91BD
:1004A0001F910F9108950F931F93CF93DF93182FF0
:1004B000092F31DF882361F085E573DFC12FD02F4D
:1004C00010E089916EDF1F5F1830D9F781E001C01D
:1004D00080E0DF91CF911F910F91089583E083BF5A
:1004E000089504C012BE22B72D37E8F36150710998
:1004F00081099109B8F70895CF93DF9300D000D018
:100500001F92CDB7DEB787B38F6787BB84B38F6089
:1005100084BB18BA15BA82E081BB12BA89B780646D
:1005200089BF85B5826085BD7894D8DFFDDD809375
:100530007700AB9AF12C8AE0E82E2DC038E0F39ECC
:100540008001112408581F4FF8018081883211F56D
:10055000C80137DE60E273E080E090E0C2DFBE01F8
:100560006C5F7F4FC80156DE8130A1F4BE016F5F22
:100570007F4FCE010496A3DE2A818B816E2D11D090
:1005800090E0FAE02F9F800D911D1124909375004B
:1005900080937400F39480917700F81678F2F12C30
:1005A000FCCF991B79E004C0991F961708F0961BA1
:1005B000881F7A95C9F78095089597FB072E16F442
:1005C000009406D077FD08D00BD007FC05D03EF490
:1005D000909581959F4F0895709561957F4F0895EF
:1005E000AA1BBB1B51E107C0AA1FBB1FA617B70759
:1005F00010F0A61BB70B881F991F5A95A9F7809575
:0C0600009095BC01CD010895F894FFCF47
:10060C003F065B4F666D7D077F6F01020304050695
:04061C0007080900C2
:00000001FF
